:020000040800F2
:1000000000040020450100084D0100084F010008D0
:1000100051010008530100085501000800000000CC
:100020000000000000000000000000005701000870
:1000300059010008000000005B0100085D01000894
:100040005F0100085F0100085F0100085F01000810
:100050005F0100085F0100085F0100085F01000800
:100060005F0100085F0100085F0100085F010008F0
:100070005F0100085F0100085F0100085F010008E0
:100080005F0100085F0100085F0100085F010008D0
:100090005F0100085F0100085F0100085F010008C0
:1000A0005F0100085F0100085F0100085F010008B0
:1000B0005F0100085F0100085F0100085F010008A0
:1000C0005F0100085F0100085F0100085F01000890
:1000D0005F0100085F0100085F0100085F01000880
:1000E0005F0100085F0100085F0100085F01000870
:1000F0005F0100085F0100085F0100085F01000860
:100100005F0100085F0100085F0100085F0100084F
:100110005F0100085F0100085F0100085F0100083F
:100120005F0100085F0100085F0100085F0100082F
:10013000DFF80CD000F018F800480047CD010008A7
:10014000000400200648804706480047FEE7FEE717
:10015000FEE7FEE7FEE7FEE7FEE7FEE7FEE7FEE777
:10016000C9010008310100081CB509480090094880
:1001700001900546009C06E0E06840F0010394E829
:10018000070098471034AC42F6D3FFF7D5FF0000C4
:100190003C0200084C02000882B00190ADF8021049
:1001A000BDF80220019948691043486102B07047C8
:1001B00082B00190ADF80210BDF8022001990869E3
:1001C0001043086102B070477047000080B584B0EA
:1001D0000020039041F20000C4F20200029040F6B9
:1001E0000040C4F2010001900299886940F00800C3
:1001F00088610199086800F00F000860019908689B
:1002000040F001000860019801210091FFF7D0FF44
:1002100000990198FFF7C0FFFFE7FEE702E008C87A
:10022000121F08C1002AFAD170477047002001E070
:1002300001C1121F002AFBD1704700004C020008C8
:0C02400000000020000400002C02000858
:0400000508000131BD
:00000001FF
